{
  "contractName": "DecentralBank",
  "abi": [
    {
      "inputs": [
        {
          "internalType": "contract Reward",
          "name": "_reward",
          "type": "address"
        },
        {
          "internalType": "contract Tether",
          "name": "_tether",
          "type": "address"
        }
      ],
      "stateMutability": "nonpayable",
      "type": "constructor"
    },
    {
      "inputs": [
        {
          "internalType": "address",
          "name": "",
          "type": "address"
        }
      ],
      "name": "hasStaked",
      "outputs": [
        {
          "internalType": "bool",
          "name": "",
          "type": "bool"
        }
      ],
      "stateMutability": "view",
      "type": "function",
      "constant": true
    },
    {
      "inputs": [
        {
          "internalType": "address",
          "name": "",
          "type": "address"
        }
      ],
      "name": "isStaking",
      "outputs": [
        {
          "internalType": "bool",
          "name": "",
          "type": "bool"
        }
      ],
      "stateMutability": "view",
      "type": "function",
      "constant": true
    },
    {
      "inputs": [],
      "name": "name",
      "outputs": [
        {
          "internalType": "string",
          "name": "",
          "type": "string"
        }
      ],
      "stateMutability": "view",
      "type": "function",
      "constant": true
    },
    {
      "inputs": [],
      "name": "owner",
      "outputs": [
        {
          "internalType": "address",
          "name": "",
          "type": "address"
        }
      ],
      "stateMutability": "view",
      "type": "function",
      "constant": true
    },
    {
      "inputs": [],
      "name": "reward",
      "outputs": [
        {
          "internalType": "contract Reward",
          "name": "",
          "type": "address"
        }
      ],
      "stateMutability": "view",
      "type": "function",
      "constant": true
    },
    {
      "inputs": [
        {
          "internalType": "uint256",
          "name": "",
          "type": "uint256"
        }
      ],
      "name": "stakers",
      "outputs": [
        {
          "internalType": "address",
          "name": "",
          "type": "address"
        }
      ],
      "stateMutability": "view",
      "type": "function",
      "constant": true
    },
    {
      "inputs": [
        {
          "internalType": "address",
          "name": "",
          "type": "address"
        }
      ],
      "name": "stakingBalance",
      "outputs": [
        {
          "internalType": "uint256",
          "name": "",
          "type": "uint256"
        }
      ],
      "stateMutability": "view",
      "type": "function",
      "constant": true
    },
    {
      "inputs": [],
      "name": "tether",
      "outputs": [
        {
          "internalType": "contract Tether",
          "name": "",
          "type": "address"
        }
      ],
      "stateMutability": "view",
      "type": "function",
      "constant": true
    },
    {
      "inputs": [
        {
          "internalType": "uint256",
          "name": "_amount",
          "type": "uint256"
        }
      ],
      "name": "depositTokens",
      "outputs": [],
      "stateMutability": "nonpayable",
      "type": "function"
    },
    {
      "inputs": [],
      "name": "issueTokens",
      "outputs": [],
      "stateMutability": "nonpayable",
      "type": "function"
    },
    {
      "inputs": [],
      "name": "unstakeTokens",
      "outputs": [],
      "stateMutability": "nonpayable",
      "type": "function"
    }
  ],
  "bytecode": "0x60c0604052600e60808190526d446563656e7472616c2042616e6b60901b60a090815261002f91600191906100a8565b5034801561003c57600080fd5b506040516108a83803806108a88339818101604052604081101561005f57600080fd5b508051602090910151600380546001600160a01b039384166001600160a01b0319918216179091556002805493909216928116929092179055600080549091163317905561013b565b828054600181600116156101000203166002900490600052602060002090601f016020900481019282601f106100e957805160ff1916838001178555610116565b82800160010185558215610116579182015b828111156101165782518255916020019190600101906100fb565b50610122929150610126565b5090565b5b808211156101225760008155600101610127565b61075e8061014a6000396000f3fe608060405234801561001057600080fd5b50600436106100a95760003560e01c80636f49712b116100715780636f49712b146101995780638da5cb5b146101d3578063a5ce413b146101db578063c93c8f34146101e3578063dd49756e14610209578063fd5e6dd114610226576100a9565b806306fdde03146100ae578063228cb7331461012b57806345bc78ab1461014f5780635efc071a1461018757806360ab58521461018f575b600080fd5b6100b6610243565b6040805160208082528351818301528351919283929083019185019080838360005b838110156100f05781810151838201526020016100d8565b50505050905090810190601f16801561011d5780820380516001836020036101000a031916815260200191505b509250505060405180910390f35b6101336102d0565b604080516001600160a01b039092168252519081900360200190f35b6101756004803603602081101561016557600080fd5b50356001600160a01b03166102df565b60408051918252519081900360200190f35b6101336102f1565b610197610300565b005b6101bf600480360360208110156101af57600080fd5b50356001600160a01b031661043e565b604080519115158252519081900360200190f35b610133610453565b610197610462565b6101bf600480360360208110156101f957600080fd5b50356001600160a01b0316610555565b6101976004803603602081101561021f57600080fd5b503561056a565b6101336004803603602081101561023c57600080fd5b50356106d9565b60018054604080516020600284861615610100026000190190941693909304601f810184900484028201840190925281815292918301828280156102c85780601f1061029d576101008083540402835291602001916102c8565b820191906000526020600020905b8154815290600101906020018083116102ab57829003601f168201915b505050505081565b6003546001600160a01b031681565b60056020526000908152604090205481565b6002546001600160a01b031681565b6000546001600160a01b0316331461035f576040805162461bcd60e51b815260206004820152601c60248201527f7468652063616c6c6572206d75737420626520746865206f776e657200000000604482015290519081900360640190fd5b60005b60045481101561043b5760006004828154811061037b57fe5b60009182526020808320909101546001600160a01b0316808352600590915260408220549092506009900490508015610431576003546040805163a9059cbb60e01b81526001600160a01b038581166004830152602482018590529151919092169163a9059cbb9160448083019260209291908290030181600087803b15801561040457600080fd5b505af1158015610418573d6000803e3d6000fd5b505050506040513d602081101561042e57600080fd5b50505b5050600101610362565b50565b60076020526000908152604090205460ff1681565b6000546001600160a01b031681565b33600090815260056020526040902054806104ae5760405162461bcd60e51b81526004018080602001828103825260288152602001806107016028913960400191505060405180910390fd5b6002546040805163a9059cbb60e01b81523360048201526024810184905290516001600160a01b039092169163a9059cbb916044808201926020929091908290030181600087803b15801561050257600080fd5b505af1158015610516573d6000803e3d6000fd5b505050506040513d602081101561052c57600080fd5b505033600090815260056020908152604080832083905560079091529020805460ff1916905550565b60066020526000908152604090205460ff1681565b600081116105b4576040805162461bcd60e51b81526020600482015260126024820152710616d6f756e742063616e6e6f7420626520360741b604482015290519081900360640190fd5b600254604080516323b872dd60e01b81523360048201523060248201526044810184905290516001600160a01b03909216916323b872dd916064808201926020929091908290030181600087803b15801561060e57600080fd5b505af1158015610622573d6000803e3d6000fd5b505050506040513d602081101561063857600080fd5b5050336000908152600560209081526040808320805485019055600690915290205460ff166106a457600480546001810182556000919091527f8a35acfbc15ff81a39ae7d344fd709f28e8600b4aa8c65c6b64bfe7fe36bd19b0180546001600160a01b031916331790555b503360009081526007602090815260408083208054600160ff1991821681179092556006909352922080549091169091179055565b600481815481106106e657fe5b6000918252602090912001546001600160a01b031690508156fe7374616b696e672062616c616e63652063616e6e6f74206265206c657373207468616e207a65726fa2646970667358221220d9ab15baa2f953328c5024e8ebaede2fe4a4dd830b08acf8bca0efa8ee3a4a5364736f6c63430007010033",
  "immutableReferences": {},
  "source": "// SPDX-License-Identifier: MIT\npragma solidity >=0.4.22 <0.9.0;\n\nimport \"./Reward.sol\";\nimport \"./Tether.sol\";\n\ncontract DecentralBank {\n    address public owner;\n    string public name = \"Decentral Bank\";\n    Tether public tether;\n    Reward public reward;\n    address[] public stakers;\n    mapping(address => uint256) public stakingBalance;\n    mapping(address => bool) public hasStaked;\n    mapping(address => bool) public isStaking;\n\n    constructor(Reward _reward, Tether _tether) public {\n        reward = _reward;\n        tether = _tether;\n        owner = msg.sender;\n    }\n\n    // function for depositing the Staking\n    function depositTokens(uint256 _amount) public {\n        // require the staking amount to be great than 0\n        require(_amount > 0, \"amount cannot be 0\");\n\n        // transfer Tether tokens to this contract address for staking\n        tether.transferFrom(msg.sender, address(this), _amount); // to, from, value\n\n        //update stakingbalance\n        stakingBalance[msg.sender] += _amount;\n\n        // if not staked, add their address to the Stakers list/array\n        if (!hasStaked[msg.sender]) {\n            stakers.push(msg.sender);\n        }\n\n        //Update staking balance\n        isStaking[msg.sender] = true;\n        hasStaked[msg.sender] = true;\n    }\n\n    // issue rewards\n    function issueTokens() public {\n        // only owner can call\n        require(msg.sender == owner, \"the caller must be the owner\");\n\n        // loop through stakers array\n        for (uint256 i = 0; i < stakers.length; i++) {\n            address recipient = stakers[i];\n            uint256 balance = stakingBalance[recipient] / 9; // divide by 9 to create perfectage incentive for Staker\n\n            // if balance is greater than 0\n            if (balance > 0) {\n                //transfer tokens\n                reward.transfer(recipient, balance);\n            }\n        }\n    }\n\n    // handles withdrawing from Staking\n    function unstakeTokens() public {\n        uint256 balance = stakingBalance[msg.sender];\n        // require the amount to be greater than zero\n        require(balance > 0, \"staking balance cannot be less than zero\");\n\n        // transfer the tokens to the specified contract address from our bank\n        tether.transfer(msg.sender, balance);\n\n        // reset staking balance\n        stakingBalance[msg.sender] = 0;\n\n        // Update Staking Status\n        isStaking[msg.sender] = false;\n    }\n}\n",
  "sourcePath": "/home/hammed/defi-staking-app/contracts/DecentralBank.sol",
  "compiler": {
    "name": "solc",
    "version": "0.7.1+commit.f4a555be.Emscripten.clang"
  },
  "schemaVersion": "3.4.4",
  "updatedAt": "2022-09-29T21:01:12.700Z",
  "networkType": "ethereum",
  "devdoc": {
    "kind": "dev",
    "methods": {},
    "version": 1
  },
  "userdoc": {
    "kind": "user",
    "methods": {},
    "version": 1
  }
}