{
  "contractName": "Migrations",
  "abi": [
    {
      "inputs": [],
      "stateMutability": "nonpayable",
      "type": "constructor"
    },
    {
      "inputs": [],
      "name": "owner",
      "outputs": [
        {
          "internalType": "address",
          "name": "",
          "type": "address"
        }
      ],
      "stateMutability": "view",
      "type": "function",
      "constant": true
    },
    {
      "inputs": [
        {
          "internalType": "uint256",
          "name": "completed_migration_number",
          "type": "uint256"
        }
      ],
      "name": "setCompleted",
      "outputs": [],
      "stateMutability": "nonpayable",
      "type": "function"
    },
    {
      "inputs": [
        {
          "internalType": "address",
          "name": "new_address",
          "type": "address"
        }
      ],
      "name": "update",
      "outputs": [],
      "stateMutability": "nonpayable",
      "type": "function"
    }
  ],
  "bytecode": "0x608060405234801561001057600080fd5b50600080546001600160a01b03191633179055610189806100326000396000f3fe608060405234801561001057600080fd5b50600436106100415760003560e01c80631c1b8772146100465780638da5cb5b1461006e578063fdacd57614610092575b600080fd5b61006c6004803603602081101561005c57600080fd5b50356001600160a01b03166100af565b005b61007661012c565b604080516001600160a01b039092168252519081900360200190f35b61006c600480360360208110156100a857600080fd5b503561013b565b6000546001600160a01b0316331415610129576000819050806001600160a01b031663fdacd5766001546040518263ffffffff1660e01b815260040180828152602001915050600060405180830381600087803b15801561010f57600080fd5b505af1158015610123573d6000803e3d6000fd5b50505050505b50565b6000546001600160a01b031681565b6000546001600160a01b03163314156101295760015556fea26469706673582212207400fa795b49b773d93798e52594b2d79fbd6478075f4ff47b5862f0b3f6332e64736f6c63430007010033",
  "immutableReferences": {},
  "source": "// SPDX-License-Identifier: MIT\npragma solidity >=0.4.22 <0.9.0;\n\ncontract Migrations {\n    address public owner;\n    uint256 last_completed_migration;\n\n    constructor() {\n        owner = msg.sender;\n    }\n\n    modifier onlyOwner() {\n        if (msg.sender == owner) _; // if the sender is the owner, then continue;\n    }\n\n    function setCompleted(uint256 completed_migration_number) public onlyOwner {\n        last_completed_migration = completed_migration_number; //stores the value into a new variable\n    }\n\n    function update(address new_address) public onlyOwner {\n        Migrations updated = Migrations(new_address);\n        updated.setCompleted(last_completed_migration);\n    }\n}\n",
  "sourcePath": "/home/hammed/defi-staking-app/contracts/Migrations.sol",
  "compiler": {
    "name": "solc",
    "version": "0.7.1+commit.f4a555be.Emscripten.clang"
  },
  "schemaVersion": "3.4.4",
  "updatedAt": "2022-10-03T21:24:56.122Z",
  "networkType": "ethereum",
  "devdoc": {
    "kind": "dev",
    "methods": {},
    "version": 1
  },
  "userdoc": {
    "kind": "user",
    "methods": {},
    "version": 1
  }
}